:1000000013C600000C94180B0C94ED0A0C94C20A51
:100010000C94970A0C946C0A0C94410A0C94160ADE
:100020000C94EB0932C6000030C600002EC600005A
:100030002CC600002AC6000028C6000026C6000004
:1000400024C6000022C6000020C600001EC6000014
:100050001CC600001AC6000018C600000C94A109B6
:1000600014C6000074C7000049C700000EC6000097
:100070000CC600000AC6000008C6000006C6000044
:1000800004C6000002C6000000C60000FEC5000055
:10009000FCC50000FAC50000F8C500000C940C0D6A
:1000A000F4C50000F2C50000F0C50000EEC5000078
:1000B000ECC50000EAC50000E8C50000E6C5000088
:1000C000E4C50000E2C50000E0C50000DEC5000098
:1000D000DCC50000DAC50000D8C50000D6C50000A8
:1000E000D4C500000C080F08FE07020806084608E1
:1000F000130817081D08210825082B082F083308A6
:10010000460839083D084108BD08C208C708D1089B
:10011000DB085409E508ED08F508FF08090913098B
:1001200022092C095409360940094A09084AD73BD3
:100130003BCE016E84BCBFFDC12F3D6C74319ABDB6
:1001400056833DDA3D00C77F11BED9E4BB4C3E91DA
:100150006BAAAABE000000803F0001B202FFFF01AF
:1001600090040923A135016A02060001600800001D
:100170000000000000000060044000000001620276
:10018000000000600400400000037B034CCD6C03C2
:10019000AB0336567600680402CB47A2021804006F
:1001A000058BC1010C0400000000037F060CC92C64
:1001B000979797038903264666006C022000024049
:1001C0000400000000024404000000000248040093
:1001D000000000024C040000000002500400000077
:1001E0000002540400000000025804000000000255
:1001F0005C040000000002BC040000000001EC04EC
:1002000000004000037F060CC92C97979704020357
:100210000D355D040904872D353D00A30100000064
:100220000001078601FE074105F120283038077ECE
:1002300001300746019A074704F1283038076C045B
:10024000F12830380216020002FB00003E000B00CD
:1002500036000100020003000000650054FFEF00BB
:1002600000FA80000B128200010002000000000072
:1002700000000000000000000000280000FFFF4513
:1002800081FFFFFA7200000000000003E800000098
:100290000100017FFFFFFE8001001B000000000045
:1002A000000000000000000000003E03304000009D
:1002B0000002CAE3093E80000020000000000000A8
:1002C00000400000006000000041FF000000000B43
:1002D0002A0000165500002182FD872650FD80006F
:1002E00000001F0000000580000000000000010069
:1002F00000000200000003000040000000000004B5
:100300006F0002653200005EC04000000000000087
:10031000000000000000000000FB8C6F5DFD5D0828
:10032000D9007C733B006C12CC3200139D3200D09C
:10033000D632000800400001F4FFE6807902000098
:10034000000000D0D600002710FB00000040000095
:10035000000000000000000000000000010000009C
:100360000000000100010000000000FA36FFBC3070
:100370008E0005FBF0FFD95BC8FFD09ABE000010CD
:10038000A9FFF41EB200CEBBF70000000100000080
:1003900004000200020200000CFFC2800000018085
:1003A0000000CF80004000000000000001000000BD
:1003B0000000000600000000140000000000000023
:1003C000000000000000000000000000000000002D
:1003D000000000000000000000000000000000001D
:1003E00000000000000000000000000000033F6863
:1003F000B6793528BCC67ED16C8000000040000074
:10040000000000B26A0000000000000000000000D0
:100410000000003FF000000030000000000000007D
:1004200000000000000000000000000000000000CC
:100430000000000000000000000000254D002F70AB
:100440006D000005AE000C02D00000000000650049
:1004500054FFEF0000000000000000010000440015
:100460000000000C0000000100000000000065001A
:100470000000540000FFEF0000000000000000003A
:10048000000000000000000000400000000000002C
:10049000000000000000000000400000000000001C
:1004A000000000000000000000000000010000004B
:1004B000020000000000000000000000000000003A
:1004C000000000000000000000000000000000002C
:1004D000000000000000000000001B000000000001
:1004E000000000000000000000000000000000000C
:1004F00000000000000000000000000000000000FC
:10050000000000000040000000001B000000000090
:1005100000000000000000000000000000000000DB
:1005200000000000000000000000000000000000CB
:1005300000000000000000000000000000000000BB
:10054000000000000000000000D8DCBAA2F1DEB21A
:10055000B8B4A88191F74A907F916AF3F9DBA8F9C2
:10056000B0BAA080F2CE81F3C2F1C1F2C3F3CCA243
:10057000B280F1C6D880BAA7DFDFDFF2A7C3CBC550
:10058000B6F087A2942448703C95406834589B7814
:10059000A2F183922D557DD8B1B4B8A1D09180F24B
:1005A00070F370F27C80A8F101B09887D943D886A7
:1005B000C988BAA1F20EB89780F1A9DFDFDFAADF00
:1005C000DFDFF2AAC5CDC7A90CC92C97979797F181
:1005D000A989264666B0B4BA80ACDEF2CAF1B28C04
:1005E00002A9B69800890E161EB8A9B4992C547C9D
:1005F000B08AA896365676F1B9AFB4B083C0B8A821
:100600009711B18F98B9AFF0240844106418F1A382
:1006100029557DAF83B593AFF0002850F1A3869F95
:1006200061A6DADEDFD9FAA38696DB31A6D9F8DF38
:10063000BAA68FC2C5C7B28CC1B8A2DFDFDFA3DF05
:10064000DFDFD8D8F1B8A8B286B4980D355DB8AA66
:1006500098B0872D353DB2B6BAAF8C96198F9FA74B
:100660000E161EB49AB8AA872C547CB9A3DEDFDF1D
:10067000A3B180F2C4CDC9F1B8A9B499830D355D99
:1006800089B9A32D557DB593A30E161EA92C547CB4
:10069000B8B4B0F19783A81184A50998A383F0DAC0
:1006A000240844106418D8F1A529557DA585950224
:1006B0001A2E3A565A4048F9F3A3D9F8F0988324F1
:1006C00008441064189782A8F111F098A2240844F5
:1006D000106418DAF3DED883A59401D9A302F1A23D
:1006E000C3C5C7D8F18492A24DDA2AD84869D92A5D
:1006F000D86855DA32D85071D932D8705DDA3AD824
:100700005879D93AD87893A34DDA2AD84869D92AA2
:10071000D86855DA32D85071D932D8705DDA3AD803
:100720005879D93AD878A88A9AF02850789EF388D0
:1007300018F19F1D98A8D908D8C89F129EF315A834
:10074000DA1210D8F1AFC8978734B5B994A421F361
:10075000D922D8F22DF3D92AD8F235F3D932D8815B
:10076000A4606061D961D86C6869D969D874707106
:10077000D971D8B1A384193D5DA3831A3E5E93104D
:1007800030811011B8B0AF8F94F2DA3ED8B49AA885
:100790008729DAF8D8879A35DAF8D8879A3DDAF8CF
:1007A000D8B1B9A49885022E56A581000C14A39740
:1007B000B08AF12DD928D84DD948D86DD968D8B18B
:1007C000840DDA0ED8A32983DA2C0ED8A3844983AA
:1007D000DA2C4C0ED8B8B0A88A9AF520AADADFD85D
:1007E000A840AAD0DADED8A860AADAD0DFD8F1977C
:1007F00086A8319B069907AB9728889BF00C20149C
:1008000040B8B0B4A88C9CF0042851791D3014383D
:10081000B282ABD0982C505078789BF11AB0F08A05
:100820009CA82951798B2951798A2470598B205899
:10083000718A4469388B3940688A6448318B304901
:1008400060A588200971584468113964493019F14C
:10085000AC002C547CF08CA804285078F1889726A2
:10086000A85998AC8C02264666F0899CA829517933
:10087000247059446938644831A98809205970ABFB
:1008800011384069A8193148608CA83C415C207C33
:1008900000F187981986A86E767EA999882D557DD6
:1008A0009EB9A38A228A6E8A568A5E9FB1830626E3
:1008B00046660E2E4E6E9DB8AD002C547CF2B18C67
:1008C000B499B9A32D557D8191AC38AD3AB58391DA
:1008D000AC2DD928D84DD948D86DD968D88C9DAEC3
:1008E00029D904AED851D904AED879D904D881F326
:1008F0009DAD008DAE1981ADD901D8F2AEDA26D802
:100900008E912983A7D9ADADADADF32AD8D8F1B07A
:10091000AC89913E5E76F3AC2E2EF1B18C5A9CAC34
:100920002C2828289CAC3018A8988128343C97247F
:10093000A728343C9C24F2B089AC912C4C6C8A9B47
:100940002DD9D8D851D9D8D879D9D8D8F19E88A35B
:1009500031DAD8D8912DD928D84DD948D86DD96851
:10096000D8B18393353D8025DAD8D88569DAD8D8CF
:10097000B49381A328343CF3AB8BF8A391B609B4AC
:10098000D9ABDEFAB0879CB9A3DDF1A3A3A3A395ED
:10099000F1A3A3A39DF1A3A3A3A3F2A3B49080F218
:1009A000A3A3A3A3A3A3A3A3A3A3B2A3A3A3A3A308
:1009B000A3B087B599F1A3A3A398F1A3A3A3A39789
:1009C000A3A3A3A3F39BA3A3DCB9A7F1262626D850
:1009D000D8FF2900444D5020496E697469616C69E3
:1009E0007A6174696F6E206661696C656420286342
:1009F0006F64652000444D50207265616479212048
:100A000057616974696E6720666F722066697273D8
:100A10007420696E746572727570742E2E2E004586
:100A20006E61626C696E6720696E74657272757052
:100A30007420646574656374696F6E202841726404
:100A400075696E6F2065787465726E616C20696E71
:100A5000746572727570742030292E2E2E00456ECA
:100A600061626C696E6720444D502E2E2E004D50F1
:100A7000553630353020636F6E6E656374696F6E06
:100A8000206661696C6564004D5055363035302004
:100A9000636F6E6E656374696F6E207375636365F3
:100AA000737366756C00496E697469616C697A6903
:100AB0006E6720444D502E2E2E0054657374696E5F
:100AC000672064657669636520636F6E6E65637425
:100AD000696F6E732E2E2E00496E697469616C69A0
:100AE0007A696E672049324320646576696365736D
:100AF0002E2E2E004649464F206F766572666C6F2B
:100B000077210000002100240027002A002D00305A
:100B100000330001010000040107010A0100002266
:100B200000250028002B002E0031003400020100B7
:100B300000050108010B0100000A0B02090C0D0E53
:100B4000080703040100000000000000000000008E
:100B50000000000000000000000000000000000095
:100B60000000001211100000000000000000000052
:100B70000000000000000000000000000000002055
:100B8000002300260029002C002F00320000010065
:100B90000003010601090105050505070508080808
:100BA00008020202020A0A080804040404010101FE
:100BB0000101010101030303030303030304070706
:100BC000070C0C0C0C0C0C0C0C02020202060606A4
:100BD00006060606060B0B0B0B0B0B0B0B0102108C
:100BE0002020080810204010204080020102010847
:100BF00004020101020408102040808040201008F7
:100C0000040201800402018040201008040201084F
:100C100004020101020408102040800102040810AF
:100C200020408000EF20C42011241FBECFEFD1E26E
:100C3000DEBFCDBF00E00CBF25E0AEEDB2E001C0ED
:100C40001D92A635B207E1F712E0A0E0B2E0E2E5BE
:100C5000FEE400E00BBF02C007900D92AE3DB1076D
:100C6000D9F716E0C3E1D6E000E006C021970109FC
:100C7000802FFE010E94E524C231D10780E00807E1
:100C8000A9F70E94C2170C941827BAC9FC01538D0A
:100C9000448D252F30E0842F90E0821B930B541756
:100CA00010F0CF96089501970895FC01918D828DE3
:100CB000981761F0828DDF01A80FB11D5D968C91B0
:100CC000928D9F5F9F73928F90E008958FEF9FEFBB
:100CD0000895FC01918D828D981731F0828DE80F77
:100CE000F11D858D90E008958FEF9FEF0895FC0131
:100CF000918D228D892F90E0805C9F4F821B9109FE
:100D00008F739927089584E094E0F1DF21E0892B27
:100D100009F420E0822F0895FC01848DDF01A80FE3
:100D2000B11DA35ABF4F2C91848D90E001968F7313
:100D30009927848FA689B7892C93A089B1898C9132
:100D400080648C93938D848D981306C00288F389F8
:100D5000E02D80818F7D80830895EF92FF920F9325
:100D60001F93CF93DF93EC0181E0888F9B8D8C8D57
:100D7000981305C0E889F989808185FD23C0F62E86
:100D80000B8D10E00F5F1F4F0F731127E02E8C8D1E
:100D9000E8120BC00FB607FCFACFE889F989808109
:100DA00085FFF5CFCE01B8DFF2CF8B8DFE01E80FC6
:100DB000F11DE35AFF4FF0820B8FEA89FB89808196
:100DC000806207C0EE89FF896083E889F9898081A4
:100DD0008064808381E090E0DF91CF911F910F913B
:100DE000FF90EF900895CF93DF93EC01888D8823D7
:100DF000C1F0EA89FB89808185FD05C0A889B98990
:100E00008C9186FD0EC00FB607FCF5CF808185FF63
:100E1000F2CFA889B9898C9185FFEDCFCE017CDF17
:100E2000E8CFDF91CF91089580E090E0892B19F011
:100E30006ADF811125C080E090E0892B41F080E0DD
:100E400090E0892B21F00E94000081111CC080E0FD
:100E500090E0892B41F080E090E0892B21F00E9406
:100E60000000811113C080E090E0892BA1F080E0A8
:100E700090E0892B81F00E94000081110AC0089542
:100E80000E940000D8CF0E940000E1CF0E94000025
:100E9000EACF0C94000008953FB7F8948091B50311
:100EA0009091B603A091B703B091B80326B5A89B63
:100EB00005C02F3F19F00196A11DB11D3FBFBA2FEC
:100EC000A92F982F8827820F911DA11DB11DBC014C
:100ED000CD0142E0660F771F881F991F4A95D1F711
:100EE0000895089585ED8093BC008091BC0084FD39
:100EF000FCCF1092DF0308950E94FE261F920F92EE
:100F00000FB60F9211240BB60F922F933F934F936E
:100F10005F936F937F938F939F93AF93BF93EF9361
:100F2000FF9384E094E0F8DEFF91EF91BF91AF91E1
:100F30009F918F917F916F915F914F913F912F91F1
:100F40000F900BBE0F900FBE0F901F9018951F9221
:100F50000F920FB60F9211240BB60F922F938F930F
:100F60009F93EF93FF93E0911404F0911504808117
:100F7000E0911A04F0911B0482FD12C090818091CF
:100F80001D048F5F8F7320911E04821751F0E09132
:100F90001D04F0E0EC5FFB4F958F80931D0401C0B2
:100FA0008081FF91EF919F918F912F910F900BBEB8
:100FB0000F900FBE0F901F901895362F90E0FC01F8
:100FC000E95CF44F4491FC01E352F44F2491FC019D
:100FD000E956F44F9491992309F46BC0442309F422
:100FE00055C050E0FA013197E231F10508F04EC0EA
:100FF0008827EE58FF4F8F4F0C94E5248091800096
:101000008F7707C0809180008F7D03C08091800022
:10101000877F809380003AC084B58F7702C084B503
:101020008F7D84BD33C08091B0008F7703C08091E5
:10103000B0008F7D8093B00029C0809190008F77A1
:1010400007C0809190008F7D03C080919000877FC2
:10105000809390001BC08091A0008F7707C0809183
:10106000A0008F7D03C08091A000877F8093A000A7
:101070000DC0809120018F7707C0809120018F7D66
:1010800003C080912001877F80932001E92FF0E049
:10109000EE0FFF1FE35EF44FA591B4918FB7F89464
:1010A000EC91311103C020952E2301C02E2B2C93DF
:1010B0008FBF0895CF93DF9390E0FC01E352F44F8C
:1010C0002491FC01E956F44F8491882361F190E06A
:1010D000880F991FFC01ED5FF44FC591D491FC017D
:1010E000E35EF44FA591B491611109C09FB7F894E4
:1010F0008881209582238883EC912E230BC0623057
:1011000061F49FB7F8943881822F80958323888378
:10111000EC912E2B2C939FBF06C08FB7F894E881DB
:101120002E2B28838FBFDF91CF9108951F93CF93EC
:10113000DF93182FEB0161E0BDDF209711F460E031
:1011400004C0CF3FD10531F461E0812FDF91CF9111
:101150001F9133CFE12FF0E0E95CF44FE4914E2F83
:1011600050E0FA013197E231F10508F09DC088277F
:10117000EC57FF4F8F4F0C94E52484B5806884BDF5
:10118000C7BD97C084B5806284BDC8BD92C0809140
:101190008000806880938000D0938900C09388008D
:1011A00088C080918000806280938000D0938B0003
:1011B000C0938A007EC08091800088608093800008
:1011C000D0938D00C0938C0074C08091B000806873
:1011D0008093B000C093B3006CC08091B000806277
:1011E0008093B000C093B40064C080919000806888
:1011F00080939000D0939900C09398005AC080913A
:101200009000806280939000D0939B00C0939A00DE
:1012100050C080919000886080939000D0939D0092
:10122000C0939C0046C08091A00080688093A0007D
:101230008091A0008F7B8093A000D093A900C093E1
:10124000A80037C08091A00080628093A000D09356
:10125000AB00C093AA002DC08091A000886080934D
:10126000A000D093AD00C093AC0023C080912001BA
:10127000806880932001D0932901C093280119C070
:1012800080912001806280932001D0932B01C09334
:101290002A010FC080912001886080932001D093A3
:1012A0002D01C0932C0105C0C038D1050CF04CCFE6
:1012B00046CFDF91CF911F9108958F929F92AF9269
:1012C000BF92CF92DF92EF92FF926B017C01E4DD3F
:1012D0004B015C01C114D104E104F104E9F0DCDD4F
:1012E000DC01CB0188199909AA09BB09883E934002
:1012F000A105B10578F321E0C21AD108E108F1088F
:1013000088EE880E83E0981EA11CB11CC114D10484
:10131000E104F10421F7DECFFF90EF90DF90CF9052
:10132000BF90AF909F908F9008952FB7F8946091E1
:10133000B1037091B2038091B3039091B4032FBFB6
:1013400008951F920F920FB60F9211242F933F937F
:101350008F939F93AF93BF938091B1039091B2030A
:10136000A091B303B091B4033091B00323E0230FF5
:101370002D3720F40196A11DB11D05C026E8230FCD
:101380000296A11DB11D2093B0038093B1039093E9
:10139000B203A093B303B093B4038091B5039091CB
:1013A000B603A091B703B091B8030196A11DB11D7A
:1013B0008093B5039093B603A093B703B093B8039B
:1013C000BF91AF919F918F913F912F910F900FBE41
:1013D0000F901F9018951F920F920FB60F92112425
:1013E0000BB60F922F933F934F935F936F937F931F
:1013F0008F939F93AF93BF93EF93FF93E0910E0270
:10140000F0910F021995FF91EF91BF91AF919F91CC
:101410008F917F916F915F914F913F912F910F909D
:101420000BBE0F900FBE0F901F9018951F920F923A
:101430000FB60F9211240BB60F922F933F934F9339
:101440005F936F937F938F939F93AF93BF93EF932C
:10145000FF93E0910C02F0910D021995FF91EF912D
:10146000BF91AF919F918F917F916F915F914F91BC
:101470003F912F910F900BBE0F900FBE0F901F90BA
:1014800018951F920F920FB60F9211240BB60F9260
:101490002F933F934F935F936F937F938F939F937C
:1014A000AF93BF93EF93FF93E0910202F091030299
:1014B0001995FF91EF91BF91AF919F918F917F917E
:1014C0006F915F914F913F912F910F900BBE0F90B5
:1014D0000FBE0F901F9018951F920F920FB60F928C
:1014E00011240BB60F922F933F934F935F936F93FB
:1014F0007F938F939F93AF93BF93EF93FF93E0916D
:101500000002F09101021995FF91EF91BF91AF9107
:101510009F918F917F916F915F914F913F912F910B
:101520000F900BBE0F900FBE0F901F9018951F923B
:101530000F920FB60F9211240BB60F922F933F9379
:101540004F935F936F937F938F939F93AF93BF93CB
:10155000EF93FF93E0910A02F0910B021995FF912E
:10156000EF91BF91AF919F918F917F916F915F911B
:101570004F913F912F910F900BBE0F900FBE0F9088
:101580001F9018951F920F920FB60F9211240BB651
:101590000F922F933F934F935F936F937F938F930C
:1015A0009F93AF93BF93EF93FF93E0910802F09165
:1015B00009021995FF91EF91BF91AF919F918F9182
:1015C0007F916F915F914F913F912F910F900BBE43
:1015D0000F900FBE0F901F9018951F920F920FB68D
:1015E0000F9211240BB60F922F933F934F935F935B
:1015F0006F937F938F939F93AF93BF93EF93FF93DB
:10160000E0910602F09107021995FF91EF91BF91C9
:10161000AF919F918F917F916F915F914F913F918A
:101620002F910F900BBE0F900FBE0F901F9018952B
:101630001F920F920FB60F9211240BB60F922F9399
:101640003F934F935F936F937F938F939F93AF934A
:10165000BF93EF93FF93E0910402F0910502199577
:10166000FF91EF91BF91AF919F918F917F916F917A
:101670005F914F913F912F910F900BBE0F900FBE36
:101680000F901F901895EF92FF920F931F93CF9397
:10169000DF931F921F92CDB7DEB7142F91E0909386
:1016A000E003809302041092E1031092030489EE98
:1016B00094E029833A8357D42981022FE22E3A817C
:1016C000F32E8E2D801B811738F4F70161917F0175
:1016D00089EE94E048D4F5CF0E94421491E0811144
:1016E00090E0892F0F900F90DF91CF911F910F9174
:1016F000FF90EF900895CF93DF931F92CDB7DEB7A1
:1017000049839E012F5F3F4F41E0BDDF0F90DF9186
:10171000CF9108952F923F924F925F926F927F9256
:101720008F929F92AF92BF92CF92DF92EF92FF92F1
:101730000F931F93CF93DF93CDB7DEB727970FB6E5
:10174000F894DEBF0FBECDBFE82E6B834F836901D7
:10175000ECDD4B015C016E2C660CF12C1E827724B3
:1017600073945F81452F50E05D834C831801412CB9
:10177000512C4F81F41608F096C07092E003E0926D
:1017800002041092E103109203046B8189EE94E04D
:10179000EAD30E9442147092E003E0920204109295
:1017A000E103109203048091DF038111FCCF2C81AF
:1017B0003D812F1931092132310514F020E230E04A
:1017C000213208F020E27092DF037092DE038FEF87
:1017D0008093DD031092DC03820F8093DB03709211
:1017E000BA038091BA0386298093BA038091B90322
:1017F000813071F41092B9038091BA038093BB00D9
:101800008091BC0083FDF8CF95EC9093BC0003C0A1
:10181000E5EEE093BC008091DF038130E1F380913D
:10182000DC03821710F42091DC03ABEBB3E0E9E4B6
:10183000F3E08E2F49E453E0841B821718F48D9156
:101840008193F7CF1092DF022093DE029091DE02A7
:101850008091DF02981709F10115110591F4A60195
:101860002E81420F511D27FD5A955A83498389EED7
:1018700094E03BD2E981FA8180832E812F5F2E8311
:10188000E5CF53DDDC01CB0188199909AA09BB0911
:1018900082159305A405B50510F38F81813208F0F8
:1018A00080E2F80E66CFFE8001151105D1F03DDD16
:1018B000DC01CB0188199909AA09BB0920E030E0B5
:1018C00080179107A207B30760F05F81252F30E0F2
:1018D0008F2D0F2C000C990B8217930714F4FF2403
:1018E000FA948F2D27960FB6F894DEBF0FBECDBFAA
:1018F000DF91CF911F910F91FF90EF90DF90CF90EC
:10190000BF90AF909F908F907F906F905F904F901F
:101910003F902F900895BF92CF92DF92EF92FF9267
:101920000F931F93CF93DF931F92CDB7DEB7F82E9F
:10193000E62EC42EB22ED02E08EE13E09E012F5FAD
:101940003F4F41E0E7DE882319F1EC2DF0E0EB1981
:10195000F109319621E030E002C0220F331FBA9422
:10196000E2F7215031090E2E01C0220F0A94EAF746
:101970008D2D01C0880FEA95EAF7422F4095998195
:1019800049232823422B49836E2D8F2DB4DE01C0BD
:1019900080E00F90DF91CF911F910F91FF90EF901A
:1019A000DF90CF90BF900895CF92DF92EF92FF9299
:1019B0000F931F93CF93DF931F92CDB7DEB7F82E0F
:1019C000E62ED42EC22E08EE13E09E012F5F3F4F6D
:1019D00041E0A0DE9981CC2041F041E050E001C01F
:1019E000440FDA94EAF7492B09C021E030E0A9015D
:1019F00001C0440FDA94EAF74095492349836E2DDC
:101A00008F2D79DE0F90DF91CF911F910F91FF9075
:101A1000EF90DF90CF9008951F920F920FB60F9224
:101A200011240BB60F922F933F934F935F936F93B5
:101A30007F938F939F93AF93BF93EF93FF93809187
:101A4000B900887F803609F49CC068F5883209F4B3
:101A50005BC090F4803109F454C038F4882309F451
:101A6000F6C0883009F44DC0F5C0883109F44CC087
:101A7000803209F45DC0EEC0803409F468C048F4D7
:101A8000803309F455C0883309F0E4C08093DD0346
:101A9000D8C0803509F44FC0883509F45DC088345A
:101AA00009F0D8C0D6C0883909F4C7C0A8F488376F
:101AB00009F467C038F4883609F463C0803709F444
:101AC00060C0C8C0883809F4B8C0803909F45FC064
:101AD000803809F0BFC05BC0803B09F486C038F491
:101AE000803A09F466C0883A09F47FC0B3C0803CEC
:101AF00009F4A7C0883C09F4A4C0883B09F48AC053
:101B0000A9C08091BA0310C09091DC038091DB03DF
:101B1000981770F5E091DC0381E08E0F8093DC0371
:101B2000F0E0E554FC4F80818093BB0085EC86C0DB
:101B30008093DD038EC0E091DC0381E08E0F809303
:101B4000DC038091BB00F0E0E554FC4F8083909172
:101B5000DC038091DB036EC0E091DC0381E08E0F3B
:101B60008093DC038091BB00F0E0E554FC4F808360
:101B70008091DE0381116DC081E08093B90384EA16
:101B800061C083E08093DF031092AF03CFCF8091D9
:101B9000AF03803208F051C0E091AF0381E08E0FB7
:101BA0008093AF038091BB00F0E0E157FC4F80834E
:101BB000BDCF85EC8093BC001092DF038091AF0312
:101BC000803230F4E091AF03F0E0E157FC4F108237
:101BD0006091AF0370E0E0918D03F0918E038FE888
:101BE00093E019951092AF0335C084E08093DF0332
:101BF00010928C0310928B03E0918903F0918A0379
:101C0000199580918B03811105C081E080938B032E
:101C100010926903E0918C0381E08E0F80938C0316
:101C2000F0E0E759FC4F80818093BB0090918C03DA
:101C300080918B03981708F479CF85E88093BC00D6
:101C400009C085EC8093BC001092DF0303C01092A2
:101C5000DD0348D9FF91EF91BF91AF919F918F9193
:101C60007F916F915F914F913F912F910F900BBE9C
:101C70000F900FBE0F901F90189540918B03262F49
:101C800030E0240F311D21323105DCF42091DF03D7
:101C90002430C9F4FC0180E090E0861758F43091BC
:101CA0008B032191DC01A759BC4FA30FB11D2C93CD
:101CB0000196F3CF80918B03680F60938B0380E0D4
:101CC000089581E0089582E008950895E091DF028B
:101CD0008091DE02E81730F4F0E0E75BFC4F808192
:101CE00090E008958FEF9FEF08959091DF0280912B
:101CF000DE02981750F4E92FF0E0E75BFC4F2081FB
:101D000030E09F5F9093DF0202C02FEF3FEFC901E9
:101D100008958091DE0290E02091DF02821B9109FC
:101D20000895089580E090E00895DC011496ED9107
:101D3000FC9115971C968C911C97882361F01A963C
:101D40002D913C911B97621773072CF01896ED911B
:101D5000FC9119970AC020E030E007C03097C9F025
:101D60000180F281E02D2F5F3F4F26173707B4F334
:101D70002617370771F481E01C968C931C971B96ED
:101D80003C932E931A971996FC93EE931897CF01D4
:101D9000089580E090E00895C8DF009719F0FC01F5
:101DA0008081089580E00895CF9377FD0CC0FC01F9
:101DB000228133816217730734F4C42FB6DFFC012C
:101DC000C08381E001C080E0CF910895DC011496CA
:101DD000ED91FC9115971C968C911C97882361F0CE
:101DE0001A962D913C911B97621773072CF0189649
:101DF000ED91FC9119970AC020E030E007C03097C0
:101E0000C9F00480F581E02D2F5F3F4F261737077B
:101E1000B4F32617370771F481E01C968C931C9756
:101E20001B963C932E931A971996FC93EE93189752
:101E3000CF01089580E090E00895CF92DF92EF9275
:101E4000FF9277FD12C0DC011296ED91FC91139781
:101E50006E177F0754F469017A01B8DFFC01C08274
:101E6000D182E282F38281E001C080E0FF90EF90B6
:101E7000DF90CF900895AADF009731F0FC016081D8
:101E8000718182819381089560E070E0CB010895B3
:101E9000CF93DF93EC01E881F9810190F081E02D8F
:101EA000CE0119951816190644F4E881F9810684C3
:101EB000F785E02DCE011995EECFDF91CF910895F2
:101EC000FC01828193810895CF93DF93EC01E88137
:101ED000F9810190F081E02DCE01199518161906AF
:101EE00044F4E881F9810684F785E02DCE01199547
:101EF000EECFDF91CF910895FC0182819381089507
:101F000081E08093E0020895CF92DF92EF92FF92FA
:101F10000F931F93CF93DF937C01262F972F8A0176
:101F20008091E003882391F0C62FD72F6E01C40E55
:101F3000D51ECC15DD0569F06991D701ED91FC91B5
:101F40000190F081E02DC7011995F3CF642F822F06
:101F500094DEC801DF91CF911F910F91FF90EF9018
:101F6000DF90CF900895CF93DF931F92CDB7DEB768
:101F700069832091E0032223D1F0209103042032D1
:101F800040F021E030E0FC013383228380E090E0E8
:101F900014C08091E103E82FF0E0EE51FC4F9981ED
:101FA00090838F5F8093E1038093030404C061E01A
:101FB000CE01019662DE81E090E00F90DF91CF913B
:101FC0000895CF92DF92EF92FF920F931F93CF93DA
:101FD000DF93DC0112962D913C9113971216130694
:101FE0005CF521303105C9F0EC01EC81FD81C48044
:101FF000D580E080F18002811381CF010E9482258B
:10200000DD82CC828A819B8101979B838A831C8697
:102010005E2D4F2D302F212F13C0DC01ED91FC914F
:102020000484F585E02DDF91CF911F910F91FF90F2
:10203000EF90DF90CF90199450E040E030E020E046
:10204000652F742F832F922FDF91CF911F910F91C6
:10205000FF90EF90DF90CF9008951F93CF93DF9381
:1020600077FD3BC0DC0112962D913C9113976217CE
:1020700073079CF56115710531F4ED91FC910684AF
:10208000F785E02D0BC0215031096217730751F419
:10209000DC01ED91FC910484F585E02DDF91CF9179
:1020A0001F911994EC01615071093FDEDC0111961A
:1020B000ED91FC91129710812181328112963C930F
:1020C0002E931197CF010E9482258A819B810197CF
:1020D0009B838A831C86812F01C080E0DF91CF9192
:1020E0001F910895EF92FF920F931F93CF93DF9369
:1020F00077FD44C0DC0112962D913C911397621735
:102100007307E4F56115710531F4ED91FC910684D6
:10211000F785E02D0BC0215031096217730769F470
:10212000DC01ED91FC910484F585E02DDF91CF91E8
:102130001F910F91FF90EF901994EC01615071097C
:1021400045DEDC011496ED91FC911597E080F1805D
:10215000028113812481358115963C932E93149727
:10216000CF010E9482258A819B8101979B838A836C
:102170001C865E2D4F2D302F212F04C050E040E0F3
:1021800030E020E0652F742F832F922FDF91CF91C5
:102190001F910F91FF90EF900895CF92DF92EF92F1
:1021A000FF920F931F93CF93DF93DC0112966D91F3
:1021B0007C91139716161706A4F5EC011C86613066
:1021C0007105D9F06250710901DE6C01DC011496D1
:1021D000ED91FC911597E080F18002811381CF0190
:1021E0000E948225F60115821482DF82CE828A81C6
:1021F0009B8101979B838A830FC0EC81FD81E080E6
:10220000F18002811381CF010E9482251D821C82F0
:102210001F821E821B821A823E2D2F2D502F412F8E
:1022200004C030E020E050E040E0632F722F852FA3
:10223000942FDF91CF911F910F91FF90EF90DF903E
:10224000CF900895EF92FF921F93CF93DF93FC01FD
:1022500062817381161617064CF5EC011486613005
:102260007105B1F06250710960DD7C01FC01818172
:102270009281FC0110810E948225F7011282118255
:10228000FF82EE828A819B8101979B838A830CC0A7
:1022900084819581FC0110810E9482251D821C820F
:1022A0001F821E821B821A82812F01C080E0DF9173
:1022B000CF911F91FF90EF900895EF92FF921F939F
:1022C000CF93DF93DC0112962D913C911397121658
:1022D000130614F52130310599F0EC018C819D81B4
:1022E000FC01E180F28010810E948225FD82EC8257
:1022F0008A819B8101979B838A831C86812F0DC0D5
:10230000DC01ED91FC910484F585E02DDF91CF9106
:102310001F91FF90EF90199480E0DF91CF911F9172
:10232000FF90EF900895CF92DF92EF92FF920F937C
:102330001F93CF93DF93DC0112960D911C9113979D
:102340000115110571F4ED91FC910480F581E02DEA
:10235000DF91CF911F910F91FF90EF90DF90CF9081
:1023600019946A017B01EC0186E090E00E94ED2463
:102370002C813D81FC0135832483C082D182E2829D
:10238000F3829D838C83C80101969B838A831C867C
:1023900081E0DF91CF911F910F91FF90EF90DF903F
:1023A000CF900895FF920F931F93CF93DF93DC019B
:1023B00012960D911C9113970115110559F4ED9189
:1023C000FC910480F581E02DDF91CF911F910F9159
:1023D000FF901994F62EEC0183E090E00E94ED242A
:1023E0002C813D81FC0132832183F0829D838C838B
:1023F0000F5F1F4F1B830A831C8681E0DF91CF9103
:102400001F910F91FF900895DF92EF92FF920F932B
:102410001F93CF93DF939B01642FDC0112964D91A4
:102420005C9113972417350734F0ED91FC910480EB
:10243000F581E02D09C02115310571F4DC01ED9124
:10244000FC910680F781E02DDF91CF911F910F91D4
:10245000FF90EF90DF901994D62EE9018C0183E074
:1024600090E00E94ED247C01FC0110821282118216
:10247000BE0161507109C80158DCD701DC92FC0132
:102480002181328112963C932E931197F282E18240
:10249000D80112968D919C911397019613969C9357
:1024A0008E9312971C961C9281E0DF91CF911F9121
:1024B0000F91FF90EF90DF9008950F931F93CF93AC
:1024C000DF9300D01F92CDB7DEB78C0186E090E09D
:1024D00049835A836B837C830E94ED24DC0115962B
:1024E0001C921E92149749815A816B817C81FC0158
:1024F0004083518362837383D80114962D913C915C
:102500001597232B59F01696ED91FC91179795830B
:10251000848317969C938E93169705C0F801958334
:10252000848397838683D80112968D919C9113970B
:10253000019613969C938E9312971C961C9281E0A1
:102540000F900F900F900F90DF91CF911F910F91EF
:1025500008958F929F92AF92BF92EF92FF920F9346
:102560001F93CF93DF93DB01BA01A901EC01EA814C
:10257000FB81AE17BF0734F0E881F9810480F58153
:10258000E02D07C0109781F4E881F9810680F7817A
:10259000E02DDF91CF911F910F91FF90EF90BF90B1
:1025A000AF909F908F9019944A015B01ED018C01CF
:1025B00086E090E00E94ED247C01FC0110821182F3
:1025C0001282138215821482BE0161507109C80102
:1025D000FDDBD7018D929D92AD92BC921397EC01D9
:1025E0002C813D8115963C932E931497FD82EC82AD
:1025F000F80182819381019693838283148681E01E
:10260000DF91CF911F910F91FF90EF90BF90AF900E
:102610009F908F9008950F931F93CF93DF931F92F6
:10262000CDB7DEB78C0183E090E069830E94ED2492
:10263000DC0112961C921E92119769816C93F8012D
:1026400024813581232B59F00680F781E02D928378
:102650008183D80117969C938E93169705C0F80135
:102660009583848397838683D80112968D919C915C
:102670001397019613969C938E9312971C961C9217
:1026800081E00F90DF91CF911F910F91089560E04D
:1026900086E00E94DD0761E087E00E94DD0760E0E0
:1026A00085E00E94DD0761E084E00E94DD07609123
:1026B0003D0570E08CE00E94960860913E0570E058
:1026C0008DE00C9496080F931F93CF93C82F8B0126
:1026D0008EE992E072D0B801110F880B990B0E941D
:1026E000A6216093E1027093E2028093E30290934B
:1026F000E4028091E5029091E602A091E702B09198
:10270000E8028093100290931102A0931202B093FA
:10271000130281E08093E90261E08BE10E94DD0712
:10272000C11121C060E086E00E94DD0761E087E022
:102730000E94DD0761E085E00E94DD0760E084E043
:102740000E94DD0760913D0570E0625371098CE0E5
:102750000E94960860913E0570E08DE00E94960808
:1027600086EB92E022C0C13021F561E086E00E9454
:10277000DD0760E087E00E94DD0760E085E00E9401
:10278000DD0761E084E00E94DD0760913D0570E0B7
:102790008CE00E94960860913E0570E062537109DA
:1027A0008DE00E94960883EC92E0CF911F910F91EB
:1027B00004C0CF911F910F910895CF93DF93BC0177
:1027C00084E094E085D3EC0161E872E084E094E079
:1027D0007FD38C0F9D1FDF91CF9108950F931F938F
:1027E00090E0FC01E352F44F6491FC01E956F44F90
:1027F000E491F0E0EE0FFF1FE358F44F85919491C0
:1028000000E412E42FE030E0462F77D36115710524
:102810008105910549F0DC01CB010196A11DB11D97
:10282000BC01CD019F7003C060E070E0CB011F913F
:102830000F910895E4E0F4E0A089B18982E08C93DF
:10284000A485B5851C92A685B78580E18C93108EF2
:10285000A489B58986E08C93A289B3898C91806123
:102860008C93A289B3898C9188608C93A289B38957
:102870008C9180688C930288F389E02D80818F7D14
:10288000808308952091030490910204213208F07E
:102890004AC08091DF038111FCCF32E03093DF0327
:1028A00031E03093DE033FEF3093DD031092DC0321
:1028B0002093DB03A2EEB3E04BEB53E0FA013E2F93
:1028C000341B321718F43D913193F9CF1092BA03AB
:1028D0002091BA03990F922B9093BA039091B90368
:1028E000913061F41092B9039091BA039093BB00B8
:1028F0009091BC0093FDF8CF95EC01C095EE9093BC
:10290000BC009091DF039230E1F39091DD039F3F93
:1029100079F08091DD03803241F08091DD038033D6
:1029200031F084E005C081E003C082E001C083E0B3
:102930001092E103109203041092E00308950F93A4
:102940001F93CF93DF93CFE3D5E008EE13E020E4AD
:1029500035E041E06AE388810E948A0B8981DF913A
:10296000CF911F910F91089521E042E06AE6809196
:102970003F051AC8482F6EE680913F050C947B0BEB
:102980002F923F924F925F926F927F928F929F927F
:10299000AF92BF92CF92DF92EF92FF920F931F936D
:1029A000CF93DF933C015B01342EC22F202E4F7159
:1029B0006DE680913F050E947B0B8C2FDBDF80E171
:1029C00090E00E94ED246C01002331F080E190E062
:1029D0000E94ED24582E492EE12CF12CEA14FB0420
:1029E00008F06BC0C7014096A816B90618F4DA2D96
:1029F000DE1901C0D0E18D2F90E020E031E02C1BEA
:102A000031092817390714F4DC2FD195F301EE0DA5
:102A1000FF1D222059F0952DA52DB42D8A2F891B3D
:102A20008D1730F484918D933196F8CF5E2E4F2E12
:102A3000252D342D4D2F6FE680913F050E94430BCD
:102A40008D2E912CC114D10421F1432D4F716DE6CF
:102A500080913F050E947B0B8C2F8CDF08EE13E0EA
:102A600096014D2F6FE680913F050E948A0BA401CD
:102A7000B601852D942D0E940227892B51F0C601A5
:102A80000E948225222019F1852D942D0E948225F5
:102A90001EC0E80CF91CCD0FEA14FB0408F09ECF11
:102AA000C11101C03394432D4F716DE680913F05F4
:102AB0000E947B0B8C2F5EDF91CFC6010E94822586
:102AC000222039F0852D942D0E94822502C080E0BD
:102AD00001C081E0DF91CF911F910F91FF90EF90A6
:102AE000DF90CF90BF90AF909F908F907F906F902E
:102AF0005F904F903F902F9008950F931F93462F14
:102B000008EE13E09C0164E780913F050E948A0B68
:102B10001F910F9108950F931F93CF93DF93CFE3EE
:102B2000D5E008EE13E020E435E042E062E788817A
:102B30000E948A0B898190E0982F88272A81822B16
:102B4000DF91CF911F910F910895EF92FF920F9314
:102B50001F93CF93DF931F92CDB7DEB77A01890120
:102B60009E012F5F3F4F41E00E948A0B882339F07E
:102B700029812E7730E035952795F70120830F9036
:102B8000DF91CF911F910F91FF90EF9008950F93D8
:102B90001F93CF93DF938C01C0E0D0E0F801EC0FDE
:102BA000FD1F6491662371F0E0910404F091050427
:102BB0000190F081E02D84E094E01995892B11F0CB
:102BC0002196ECCFCE01DF91CF911F910F91089507
:102BD000CF93DF93DCDFEC0161E872E084E094E006
:102BE00077D18C0F9D1FDF91CF910895CF93DF9305
:102BF000EA0191E09093E003809302041092E103D4
:102C00001092030489EE94E0AED9698189EE94E0D4
:102C1000AAD9688189EE94E0A6D934DE91E08111C9
:102C200090E0892FDF91CF910895E0910404F09115
:102C300005040190F081E02D682F84E094E0199460
:102C40004F925F926F927F92EF92FF920F931F933A
:102C5000CF93DF93CDB7DEB7A1970FB6F894DEBF61
:102C60000FBECDBF7C01FA01CB0119A2223008F4BE
:102C70002AE08E010F5D1F4F422E512C612C712CCA
:102C8000BF01A30192010E94B922F901CA010150BA
:102C900011096A3014F4605D01C0695CD8016C935D
:102CA000232B242B252B61F7B801C70111D1A19645
:102CB0000FB6F894DEBF0FBECDBFDF91CF911F914D
:102CC0000F91FF90EF907F906F905F904F900895DD
:102CD0004F925F926F927F928F929F92AF92BF922C
:102CE000CF92DF92EF92FF926B017C01B42E9B0199
:102CF000AC010E94B024882319F061ED72E027C076
:102D000026013701E89477F82FEF3FEF4FE75FE7B1
:102D1000C301B2010E94B02481110DC02FEF3FEF1B
:102D20004FE75FE7C301B2010E94A02118161CF40F
:102D300065ED72E00CC02FEF3FEF4FE75FE4C70196
:102D4000B6010E94602418168CF469ED72E084E0EC
:102D500094E0FF90EF90DF90CF90BF90AF909F9066
:102D60008F907F906F905F904F90B2C02FEF3FEFAA
:102D70004FE75FECC701B6010E94A02187FDE5CFB8
:102D800020E030E0A901C701B6010E94A02187FF21
:102D900008C08DE24ADF4C01F7FAF094F7F8F0949E
:102DA00002C0812C912CA12C60E070E080E09FE3B8
:102DB000AB1441F020E030E040E251E40E94A22355
:102DC000A394F6CF9B01AC01C701B6010E94DC229F
:102DD0002B013C010E940F246B017C010E94A42165
:102DE0009B01AC01C301B2010E94DB222B013C011B
:102DF0002AE0B701A60184E094E022DF7C01E80C20
:102E0000F91CBB2021F08EE210DFE80EF91EDB2C4E
:102E1000DD2029F120E030E040E251E4C301B201BD
:102E20000E9405222B013C010E940F244B01A12C82
:102E3000B12C2AE0B501A40184E094E001DFE80EA2
:102E4000F91EC501B4010E94A4219B01AC01C3017C
:102E5000B2010E94DB222B013C01DA94D9CFC701D9
:102E6000FF90EF90DF90CF90BF90AF909F908F90AA
:102E70007F906F905F904F900895CF92DF92EF9286
:102E8000FF920F931F93CF93DF936C017A018B0115
:102E9000C0E0D0E0CE15DF0589F0D8016D918D013D
:102EA000D601ED91FC910190F081E02DC6011995BC
:102EB000892B11F47E0102C02196ECCFC701DF916E
:102EC000CF911F910F91FF90EF90DF90CF900895D9
:102ED0006115710579F0FB0101900020E9F7319748
:102EE000AF01461B570BDC01ED91FC910280F38191
:102EF000E02D199480E090E00895CF92DF92EF9258
:102F0000FF920F931F93E82FF92F05C0015011096D
:102F10002109310961F1908196239417B9F305C015
:102F2000015011092109310911F19081962394135F
:102F3000F7CFC12CD12CE12CF12C0AC08FEFC81A8D
:102F4000D80AE80AF80A0C151D052E053F0579F088
:102F500080818623841791F36C2D7D2D8E2D9F2DDE
:102F60001F910F91FF90EF90DF90CF90089560E058
:102F700070E080E090E01F910F91FF90EF90DF9064
:102F8000CF900895CF93DF93CDB7DEB7CE5AD10956
:102F90000FB6F894DEBF0FBECDBF789484B58260C3
:102FA00084BD84B5816084BD85B5826085BD85B5ED
:102FB000816085BD80916E00816080936E0010926B
:102FC00081008091810082608093810080918100E6
:102FD0008160809381008091800081608093800077
:102FE0008091B10084608093B1008091B0008160D5
:102FF0008093B000809191008260809391008091D5
:103000009100816080939100809190008160809315
:1030100090008091A10082608093A1008091A10026
:1030200081608093A1008091A00081608093A000C6
:103030008091210182608093210180912101816032
:1030400080932101809120018160809320018091F3
:103050007A00846080937A0080917A008260809305
:103060007A0080917A00816080937A0080917A0062
:10307000806880937A001092C1001092E50410924B
:10308000E6041092E7041092E8041092A304109250
:10309000A4041092A5041092A6040E9495096B0145
:1030A0007C014B015C0128EB820E2BE0921EA11CDF
:1030B000B11C0E9495096C157D058E059F0528F0B1
:1030C00086169706A806B906A0F784E094E09093C8
:1030D000E4048093E304AEDB0E9495096093A304AB
:1030E0007093A4048093A5049093A60462E772E011
:1030F0008091E3049091E404EBDE0E9495096B015A
:103100007C014B015C018AE0880E911CA11CB11C62
:103110000E9495096C157D058E059F0528F0861681
:103120009706A806B906A0F711E01093B70482DB52
:103130001092DF021092DE021092E103109203045B
:103140001092DF031093DE031092B90361E084E173
:103150000E94DD0761E085E10E94DD078091B900F2
:103160008E7F8093B9008091B9008D7F8093B900E4
:1031700088E48093B80085E48093BC008CE0809361
:10318000B80088ED9AE024DD01E023E042E06BE640
:1031900080913F050E948B0C00E022E044E06BE14F
:1031A00080913F050E948B0C22E044E06CE180910D
:1031B0003F050E948B0C20E046E06BE680913F05C6
:1031C0000E94D40C60E083E00E945A088AEB9AE0E7
:1031D000FFDC28EE33E040E455E065E780913F05F1
:1031E000B4DC80914005843319F08EE69AE002C089
:1031F00088E89AE0EDDC86EA9AE0EADC21E047E044
:103200006BE680913F050E94D40C6EE170E080E097
:1032100090E00E945D0920E046E06BE680913F056A
:103220000E94D40C40E76DE680913F050E947B0B25
:1032300086E0A0DB08EE13E020E435E041E06FE635
:1032400080913F050E948A0B40E06DE680913F052A
:103250000E947B0B9E012F5F3F4F41E060E0809119
:103260003F050E948A0B898181708093400528EE7A
:1032700033E040E455E060E080913F0566DC8090FB
:10328000400528EE33E040E455E061E080913F05E1
:103290005CDC9090400528EE33E040E455E062E0CD
:1032A00080913F0552DCA09040054FE765E2809198
:1032B0003F050E947B0B20E045E06AE680913F05D8
:1032C0000E94D40C48E665E280913F050E947B0B8A
:1032D00021E041E06AE680913F050E94D40C64E160
:1032E00070E080E090E00E945D0901E020E040E0B5
:1032F00069E877E089E492E043DB882309F4BCC203
:1033000088E090E00E94ED24B82E192FE12CF12CDA
:10331000F701E757FE4F4491F701E657FE4F24911E
:10332000670193E0C90ED11CF701E557FE4FE49108
:10333000EE23C9F1EE2EF12CE330D8F0B7018B2D3E
:10334000912FC255DF4F2883CE5AD040C355DF4F4F
:103350004883CD5AD0400E941A26B82E192FC35543
:10336000DF4F4881CD5AD040C255DF4F2881CE5A19
:10337000D040AB2DB12F80E090E08E159F0548F432
:10338000F601E80FF91FE757FE4FE491ED93019620
:10339000F4CF00E0B7018B2D912FF2DAEC0CFD1C7D
:1033A000811117C010C0A4E0EA0EF11CF601E75726
:1033B000FE4FE491E13039F442E368E380913F0548
:1033C0000E947B0B06C08B2D912F0E94822512E05C
:1033D00054C2B0ECEB16F10408F49ACF8B2D912F68
:1033E0000E94822503E023E042E06BE680913F05E6
:1033F0000E948B0C42E168E380913F050E947B0BA9
:1034000044E069E180913F050E947B0B01E023E0ED
:1034100045E06AE180913F050E948B0C03E023E0C8
:1034200042E06AE180913F050E948B0C22E044E07B
:103430006BE180913F050E948B0C43E060E7809137
:103440003F050E947B0B40E061E780913F050E94B1
:103450007B0B20E040E060E080913F050E94D40CAF
:10346000082D26E046E060E080913F050E948B0C2D
:10347000092D26E046E061E080913F050E948B0C1B
:103480000A2D26E046E062E080913F050E948B0C09
:10349000E12CF12CF701E65AFE4FE491A1E8B0E0EF
:1034A000AC0FBD1FAE0DB11DEC9381E08E0D2FEF63
:1034B000E21AF20A93E09E1568F7CD57DF4F688154
:1034C000C358D04070E09B012E5F3F4F90E028171B
:1034D000390704F700E0CE57DF4F2881C258D040AB
:1034E000CF57DF4F4881C158D04081E890E08C0F22
:1034F0009D1F039645DA80E0F701E65AFE4FE491FE
:10350000A1E8B0E0AC0FBD1FA80FB11DEC938F5F19
:10351000AFEFEA1AFA0A843078F3CD57DF4F6881AB
:10352000C358D04070E0AB014E5F5F4F282F30E0B2
:10353000421753070CF700E0CE57DF4F2881C258DF
:10354000D040CF57DF4F4881C158D04081E890E04C
:103550008C0F9D1F039614DA07DADDDA682FCE018F
:103560000196CBDA42E06FE180913F050E947B0B30
:103570004CE961E280913F050E947B0B40E560E2EF
:1035800080913F050E947B0B40E062E280913F0505
:103590000E947B0BE9D921E046E06AE680913F0575
:1035A0000E94D40C21E047E06AE680913F050E942A
:1035B000D40C21E043E06AE680913F050E94D40CE0
:1035C00080E0F701E65AFE4FE491A1E8B0E0AC0FCD
:1035D000BD1FA80FB11DEC938F5FBFEFEB1AFB0A65
:1035E000843078F3CD57DF4F6881C358D04070E006
:1035F000AB014E5F5F4F282F30E0421753070CF7A7
:1036000000E0CE57DF4F2881C258D040CF57DF4F60
:103610004881C158D04081E890E08C0F9D1F0396EF
:10362000AFD980E0F701E65AFE4FE491A1E8B0E09F
:10363000AC0FBD1FA80FB11DEC938F5F2FEFE21AE7
:10364000F20A843078F3CD57DF4F6881C358D040F9
:1036500070E0AB014E5F5F4F282F30E042175307F9
:103660000CF700E0CE57DF4F2881C258D040CF572B
:10367000DF4F4881C158D04081E890E08C0F9D1FFA
:1036800003967ED980E0F701E65AFE4FE491A1E867
:10369000B0E0AC0FBD1FA80FB11DEC938F5F9FEF83
:1036A000E91AF90A843078F3CD57DF4F6881C3589F
:1036B000D04070E0AB014E5F5F4F282F30E04217E3
:1036C00053070CF700E0CE57DF4F2881C258D04097
:1036D000CF57DF4F4881C158D04081E890E08C0F30
:1036E0009D1F03964DD917DA83309105E0F3682FBB
:1036F000CE01019602DA23D980E0F701E65AFE4FA7
:10370000E491A1E8B0E0AC0FBD1FA80FB11DEC9390
:103710008F5FAFEFEA1AFA0A843078F3CD57DF4FA4
:103720003880C358D040832C912CA4014E5F5F4F4A
:10373000282F30E04217530704F7CE57DF4FB880E9
:10374000C258D040CF57DF4F2880C158D040422DBB
:103750004F716DE680913F050E947B0B8B2D0AD93E
:10376000C12CD12C612C7724739471E8472E512CF5
:103770004C0E5D1EB3E04B0E511CC814D90490F5DD
:10378000C60140968816990618F4A32CAC1802C0FE
:1037900050E1A52E8A2D90E093012B1931092817AD
:1037A000390714F4AB2CA19492012C0D3D1D08EEA9
:1037B00013E04A2D6FE680913F050E948A0BCA0CE8
:1037C000D11CBA0CC814D904C0F6B11001C023949E
:1037D000422D4F716DE680913F050E947B0B8B2D32
:1037E000C9D8CBCF98D983309105E0F3682FCE01AB
:1037F000019683D9A4D8F701E65AFE4F80E0949150
:10380000A1E8B0E0AC0FBD1FA80FB11D9C938F5F66
:10381000843010F43196F3CFCD57DF4F6881C35811
:10382000D04070E0AB014E5F5F4F282F30E0421771
:10383000530784F700E0CE57DF4F2881C258D040AD
:10384000CF57DF4F4881C158D04081E890E08C0FBE
:103850009D1F039695D820E047E06AE680913F05DA
:103860000E94D40C8AE290E0909342058093410537
:103870007BD865D810E001C011E01093EA02809176
:103880003F052CED30E0CD56DF4F39832883C359F7
:10389000D040AE014D565F4F63E1A8D980913F05FE
:1038A0002CE430E0CF56DF4F39832883C159D04014
:1038B000AE014F565F4F65E199D980913F052BEAE4
:1038C0003FEFCF57DF4F39832883C158D040AE0137
:1038D0004F575F4F67E18AD980913F052CEF36E063
:1038E0003A832983AE014F5F5F4F6AE07FD91111A0
:1038F0002BC08EE59AE06CD921E047E06AE6809122
:103900003F050E94D40C8FE19AE062D980E89FE0E5
:10391000909303028093020280916A008C608093EE
:103920006A00ED9A0CD88093370385EF99E050D95F
:1039300081E08093400380914105909142059093EE
:103940003903809338030FC084ED99E020D940916A
:10395000EA0250E060E070E02AE084E094E070D990
:1039600082ED99E035D961E08CE00E945A0861E06F
:1039700087E00E945A0861E084E00E945A0861E0F2
:1039800088E00E945A0860E089E00E945A0861E0DD
:103990008AE00E945A0860E08BE00E945A0861E0C9
:1039A0008BE10E945A0861E086E10E945A0860E0BB
:1039B00087E10E945A0861E088E10E945A0861E0AC
:1039C00088E10E94DD0743E0242E312C0FE010E057
:1039D00061E082E00E945A0860E082E00E94DD0718
:1039E000C1010197F1F761E082E00E94DD07C801A3
:1039F0000197F1F760E082E00E94DD0760E082E07D
:103A00000E945A0882E00E94EE1324E930E040E070
:103A100050E0BFD7309348032093470360E088E02D
:103A20000E94DD0761E088E00E94DD0760E088E039
:103A30000E94DD0789E00E94EE1388D426E933E472
:103A40004BE05DE3E2D420E030E040E05FE3DDD432
:103A5000E1D6709346036093450360E08AE00E94DC
:103A6000DD07C1010197F1F761E08AE00E94DD07FF
:103A7000C1010197F1F760E08AE00E94DD078BE069
:103A80000E94EE1363D426E933E44BE05DE3BDD43A
:103A900020E030E040E05FE3B8D4BCD6709344034C
:103AA000609343032091450330914603C901861B6F
:103AB000970B9093420380934103809140038823A6
:103AC00009F4CEC08091E902882309F455C0209101
:103AD0001002309111024091120250911302609134
:103AE000E5027091E6028091E7029091E80263D5C9
:103AF0006B017C0120E030E0A901E2D6181624F029
:103B0000F7FAF094F7F8F0948090E1029090E202D6
:103B1000A090E302B090E40220E030E0A901C501EA
:103B2000B401CED6181624F0B7FAB094B7F8B09412
:103B3000A5019401C701B601C3D687FD69C00E94E3
:103B4000471384E892E00E94DD131092E90260E0DE
:103B50008BE10E94DD078091E5029091E602A09141
:103B6000E702B091E80280933C0390933D03A09359
:103B70003E03B0933F034CC08091470390914803AC
:103B80000B972CF5809143039091440320914503BA
:103B9000309146038A30910554F02A3031053CF0CB
:103BA0006DE270E080E00E94631360E009C02B309A
:103BB00031055CF46DE270E081E00E94631361E026
:103BC00082E095E00E940B130DC00B974CF320E5AB
:103BD00020933D0520933E0560E086E10E94DD07CD
:103BE0000E94471380910405909105058536910543
:103BF00024F082E095E00E94640F8091F704909198
:103C0000F8048536910524F085EF94E00E94480F72
:103C10008091E00281110CC020913A0330913B0366
:103C200080913803909139032817390708F44ACF57
:103C30001092E0020E949F14F82E809337030E9496
:103C40008B1590933B0380933A03F4FC03C08115DA
:103C5000944049F40E94B41484EF9AE00E94E8155D
:103C60000E941407B5CEF1FEFBCFE0903A03F0902E
:103C70003B03C0903803D0903903EC14FD0438F4B2
:103C80000E948B1590933B0380933A03EECF6C2DEB
:103C900087EF92E00E947D15EC18FD08F0923B033F
:103CA000E0923A03A090FB02B12CBA2CAA24809196
:103CB000FC02A80EB11CC090FF02D12CDC2CCC243D
:103CC00080910003C80ED11CE0900303F12CFE2C60
:103CD000EE2480910403E80EF11C6091F70270E07D
:103CE000762F66278091F802680F711D072E000C51
:103CF000880B990B2BD320E030E040E858E385D3C4
:103D00002B013C0160932D0570932E0580932F05A8
:103D100090933005B501BB0C880B990B17D320E0AD
:103D200030E040E858E371D34B015C01609331050A
:103D3000709332058093330590933405B601DD0C02
:103D4000880B990B03D320E030E040E858E35DD3C3
:103D5000CB56DF4F688379838A839B83C559D040D4
:103D60006093350570933605809337059093380539
:103D7000B701FF0C880B990BE9D220E030E040E856
:103D800058E343D3C756DF4F688379838A839B8385
:103D9000C959D0406093390570933A0580933B052B
:103DA00090933C059B01AC01C501B4012ED36B017E
:103DB0007C01CB56DF4F288139814A815B81C5590F
:103DC000D040C301B20121D39B01AC01C701B601B0
:103DD000F2D39B01AC01F0D3C356DF4F68837983E4
:103DE0008A839B83CD59D04060930F057093100553
:103DF0008093110590931205A5019401C301B201AE
:103E000004D36B017C01C756DF4F288139814A8179
:103E10005B81C959D040CB56DF4F688179818A8157
:103E20009B81C559D040F1D29B01AC01C701B601BD
:103E3000C3D39B01AC01C0D3CF55DF4F68837983D7
:103E40008A839B83C15AD0406093130570931405F5
:103E50008093150590931605A3019201C301B20149
:103E6000D4D26B017C01A5019401C501B401CDD26E
:103E70009B01AC01C701B6019ED36B017C01CB56FF
:103E8000DF4F288139814A815B81C559D040CA0101
:103E9000B901BBD29B01AC01C701B6018CD36B0148
:103EA0007C01C756DF4F288139814A815B81C9591E
:103EB000D040CA01B901A9D29B01AC01C701B6012A
:103EC0007BD3CB55DF4F688379838A839B83C55A25
:103ED000D04060931705709318058093190590934F
:103EE0001A05A3019201C301B20166D36B017C01E3
:103EF000A5019401C501B4015FD3C755DF4F6883A5
:103F000079838A839B83C95AD040A3019201C70158
:103F1000B6017BD22B013C01A5019401C755DF4FAF
:103F2000688179818A819B81C95AD0406ED29B0178
:103F3000AC01C301B20140D320E030E040E85FE3D0
:103F40003AD32B013C01CB56DF4F288139814A817E
:103F50005B81C559D040C755DF4F688179818A811F
:103F60009B81C95AD04051D24B015C01C756DF4FEB
:103F7000288139814A815B81C959D040C701B60186
:103F800044D29B01AC01C501B40115D3A301920138
:103F900086D36B017C016093EB027093EC028093FB
:103FA000ED029093EE02CB55DF4F288139814A8193
:103FB0005B81C55AD040CA01B90127D24B015C01CF
:103FC000CF55DF4F288139814A815B81C15AD0406A
:103FD000CA01B9011AD2A5019401EED280D49B0185
:103FE000AC01C356DF4F688179818A819B81CD59AD
:103FF000D040A8D37FD36093EF027093F0028093F8
:10400000F1029093F202C356DF4F288139814A8131
:104010005B81CD59D040CA01B901F7D1A501940106
:10402000CBD25DD49B01AC01CF55DF4F6881798144
:104030008A819B81C15AD04085D35CD36093F302BF
:104040007093F4028093F5029093F60220E030E042
:1040500044E353E4C701B601D8D12BED3FE049E476
:1040600050E470D36093E5027093E6028093E70218
:104070009093E80269E972E084E094E00E94681796
:1040800020E030E044E353E46091EB027091EC02F5
:104090008091ED029091EE02B8D12BED3FE049E422
:1040A00050E450D342E00E9468166CE972E084E06C
:1040B00094E00E94681720E030E044E353E460910C
:1040C000EF027091F0028091F1029091F2029DD185
:1040D0002BED3FE049E450E435D342E00E946816FE
:1040E0006CE972E084E094E00E94681720E030E020
:1040F00044E353E46091F3027091F4028091F5027D
:104100009091F60282D12BED3FE049E450E41AD3BE
:1041100042E00E9468166CE972E084E094E00E943C
:1041200068174091E90250E060E070E02AE084E026
:1041300094E00E9420166CE972E084E094E00E9412
:104140006817609110027091110280911202909193
:10415000130242E00E9468166CE972E084E094E089
:104160000E9468176091E1027091E2028091E3027F
:104170009091E40242E00E94681661E872E084E0F7
:1041800094E00E9468176CCD84E492E09093F6046A
:104190008093F5048091F9049091FA04009749F016
:1041A000FC01248135813093FA042093F904AAD4C8
:1041B000F1CF8CE592E09093030580930205809106
:1041C000060590910705009749F0FC012181328195
:1041D000309307052093060595D4F1CF0895E4E0C8
:1041E000F4E01382128288EE93E0A0E0B0E08483D2
:1041F0009583A683B78320E232E03183208325ECC8
:1042000030E03587248724EC30E03787268720ECA0
:1042100030E0318B208B21EC30E0338B228B22EC91
:1042200030E0358B248B26EC30E0378B268B118EDB
:10423000128E138E148EE1EAF4E016821782108635
:104240001186128613861486158616861786108A9E
:10425000118A128A138A148A158AE9EEF4E013820D
:10426000128284839583A683B78382E392E091834D
:10427000808388E680933F0580E580933E058093A8
:104280003D05EDE2F5E080E090E0A0E8BFE380834B
:104290009183A283B38314821582168217821086BB
:1042A0001186128613861486158616861786E7E20F
:1042B000F5E0118210821382128215821482E1E2EB
:1042C000F5E0118210821382128215821482EBE1D2
:1042D000F5E0118210821382128215821482EFE0BF
:1042E000F5E01082118212821382148215821682E6
:1042F00017821086118612861386E2E0F5E08CE5BF
:1043000092E0918380831582148217821682138231
:10431000128211861086138612861486E5EFF4E069
:1043200084E492E09183808315821482178216823E
:1043300013821282118610861386128614860895BF
:1043400040D008F481E00895E89409C097FB3EF45A
:1043500090958095709561957F4F8F4F9F4F9923D2
:10436000A9F0F92F96E9BB279395F6958795779550
:104370006795B795F111F8CFFAF4BB0F11F460FF10
:104380001BC06F5F7F4F8F4F9F4F16C0882311F068
:1043900096E911C0772321F09EE8872F762F05C07C
:1043A000662371F096E8862F70E060E02AF09A9517
:1043B000660F771F881FDAF7880F9695879597F90C
:1043C0000895990F0008550FAA0BE0E8FEEF1616A6
:1043D0001706E807F907C0F012161306E407F507F9
:1043E00098F0621B730B840B950B39F40A2661F06D
:1043F000232B242B252B21F408950A2609F4A14010
:10440000A6958FEF811D811D08950BD078C069D0CE
:1044100028F06ED018F0952309F05AC05FC011241F
:10442000A2C07ED0A0F3959FD1F3950F50E0551F09
:10443000629FF001729FBB27F00DB11D639FAA27F9
:10444000F00DB11DAA1F649F6627B00DA11D661F48
:10445000829F2227B00DA11D621F739FB00DA11D69
:10446000621F839FA00D611D221F749F3327A00D23
:10447000611D231F849F600D211D822F762F6A2FBF
:1044800011249F5750408AF0E1F088234AF0EE0F44
:10449000FF1FBB1F661F771F881F91505040A9F751
:1044A0009E3F510570F014C05EC05F3FECF3983E34
:1044B000DCF3869577956795B795F795E7959F5FB8
:1044C000C1F7FE2B880F911D9695879597F9089552
:1044D00097F99F6780E870E060E008959FEF80ECB7
:1044E000089500240A94161617061806090608955A
:1044F00000240A9412161306140605060895092EC0
:104500000394000C11F4882352F0BB0F40F4BF2B2E
:1045100011F460FF04C06F5F7F4F8F4F9F4F08956E
:1045200057FD9058440F551F59F05F3F71F0479564
:10453000880F97FB991F61F09F3F79F08795089549
:10454000121613061406551FF2CF4695F1DF08C068
:10455000161617061806991FF1CF86957105610585
:1045600008940895E894BB2766277727CB0197F92D
:104570000895A1E21A2EAA1BBB1BFD010DC0AA1FA4
:10458000BB1FEE1FFF1FA217B307E407F50720F0BC
:10459000A21BB30BE40BF50B661F771F881F991F37
:1045A0001A9469F760957095809590959B01AC0180
:1045B000BD01CF0108955058BB27AA270ED09FCF29
:1045C00090DF30F095DF20F031F49F3F11F41EF4BE
:1045D00085CF0EF4E095E7FB7BCFE92FA1DF80F3D9
:1045E000BA17620773078407950718F071F49EF5F0
:1045F000B9CF0EF4E0950B2EBA2FA02D0B01B90107
:1046000090010C01CA01A0011124FF27591B99F048
:10461000593F50F4503E68F11A16F040A22F232F54
:10462000342F4427585FF3CF469537952795A795A4
:10463000F0405395C9F77EF41F16BA0B620B730B4B
:10464000840BBAF09150A1F0FF0FBB1F661F771FBC
:10465000881FC2F70EC0BA0F621F731F841F48F471
:10466000879577956795B795F7959E3F08F0B3CFF7
:104670009395880F08F09927EE0F979587950895E1
:1046800030DF58F080E891E009F49EEF31DF28F048
:1046900040E851E059F45EEF09C020CF63CFE92F25
:1046A000E0783EDF68F3092E052AC1F326173707A5
:1046B0004807590738F00E2E07F8E02569F0E02585
:1046C000E0640AC0EF6307F8009407FADB01B90160
:1046D0009D01DC01CA01AD01EF9343D010DF0AD088
:1046E0005F91552331F02BED3FE049E450FD49EC5B
:1046F00063CF0895DF93DD27B92FBF7740E85FE3ED
:104700001616170648075B0710F4D92FDDD09F93C4
:104710008F937F936F9321D1ECE2F1E0ACD0EFDE89
:104720002F913F914F915F917CDEDD2349F09058AE
:10473000A2EA2AED3FE049EC5FE3D0785D274DDF48
:10474000DF91DDCE0CD0DBCED3DE40F0CADE30F020
:1047500021F45F3F19F0BCCE511105CFBFCEE0DE92
:1047600098F39923C9F35523B1F3951B550BBB2738
:10477000AA2762177307840738F09F5F5F4F220FE5
:10478000331F441FAA1FA9F333D00E2E3AF0E0E8DE
:1047900030D091505040E695001CCAF729D0FE2F2A
:1047A00027D0660F771F881FBB1F261737074807BC
:1047B000AB07B0E809F0BB0B802DBF01FF27935872
:1047C0005F4F2AF09E3F510568F082CECCCE5F3F0E
:1047D000ECF3983EDCF3869577956795B795F7955A
:1047E0009F5FC9F7880F911D9695879597F9089552
:1047F000E1E0660F771F881FBB1F621773078407EE
:10480000BA0720F0621B730B840BBA0BEE1F88F7FC
:10481000E095089504D06894B111A5CE089588DE7E
:1048200088F09F5790F0B92F9927B751A0F0D1F099
:10483000660F771F881F991F1AF0BA95C9F712C023
:10484000B13081F08FDEB1E008958CCE672F782FE4
:104850008827B85F39F0B93FCCF38695779567958F
:10486000B395D9F73EF490958095709561957F4FFB
:104870008F4F9F4F0895DF93CF931F930F93FF9216
:10488000EF92DF927B018C01689405C0DA2EEF0174
:10489000C8DDFE01E894A59125913591459155918A
:1048A000AEF3EF019ADEFE019701A801DA9479F7E1
:1048B000DF90EF90FF900F911F91CF91DF910895BE
:1048C00080DD08F48FEF08959B01AC0160E070E09B
:1048D00080E89FE337CF11F40EF400CE45C028DE08
:1048E000D0F39923D9F3CEF39F57550B87FF4AD0C6
:1048F0000024A0E640EA900180585695979528F448
:10490000805C660F771F881F20F02617370748073F
:1049100030F4621B730B840B202931294A2BA69596
:1049200017940794202531254A2758F7660F771FDB
:10493000881F20F026173707480730F4620B730BE7
:10494000840B200D311D411DA09581F7B901842FE5
:104950009158880F9695879508959B01AC0155CD88
:1049600030DD880B990B08959F3F31F0915020F472
:10497000879577956795B795880F911D969587953B
:1049800097F9089591505040660F771F881FD2F70E
:104990000895052E97FB16F400940FD057FD05D00F
:1049A000E8DD07FC02D046F408C0509540953095EC
:1049B00021953F4F4F4F5F4F08959095809570958B
:1049C00061957F4F8F4F9F4F0895EE0FFF1F881FF8
:1049D0008BBF0790F691E02D1994CF93DF9382302F
:1049E000910510F482E090E0E0915405F0915505B6
:1049F00020E030E0C0E0D0E0309711F140815181FB
:104A000048175907C0F04817590761F4828193810C
:104A1000209719F09B838A832BC090935505809330
:104A2000540526C02115310519F04217530718F413
:104A30009A01BE01DF01EF010280F381E02DDCCF9E
:104A40002115310509F1281B390B2430310590F46B
:104A500012968D919C9113976115710521F0FB01C0
:104A60009383828304C09093550580935405FD0180
:104A7000329644C0FD01E20FF31F819391932250BF
:104A800031092D933C933AC0209152053091530542
:104A9000232B41F4209116023091170230935305D5
:104AA00020935205209114023091150221153105F1
:104AB00041F42DB73EB74091180250911902241BC2
:104AC000350BE0915205F0915305E217F307A0F47E
:104AD0002E1B3F0B2817390778F0AC014E5F5F4F54
:104AE0002417350748F04E0F5F1F5093530540932E
:104AF00052058193919302C0E0E0F0E0CF01DF9195
:104B0000CF9108950F931F93CF93DF93009709F4EC
:104B10008CC0FC01329713821282009154051091CF
:104B200055050115110581F420813181820F931FF4
:104B300020915205309153052817390779F5F093E4
:104B40005305E093520571C0D80140E050E0AE1724
:104B5000BF0750F412962D913C911397AD0121158A
:104B6000310509F1D901F3CF9D01DA0133832283A5
:104B700060817181860F971F8217930769F4EC019A
:104B800028813981260F371F2E5F3F4F31832083C5
:104B90008A819B8193838283452B29F4F093550569
:104BA000E093540542C01396FC93EE931297ED01E7
:104BB000499159919E01240F351FE217F30771F4B3
:104BC00080819181840F951F029611969C938E93FC
:104BD0008281938113969C938E931297E0E0F0E08C
:104BE000D80112968D919C911397009719F0F801B6
:104BF0008C01F6CF8D919C9198012E5F3F4F820FD3
:104C0000931F20915205309153052817390769F4F5
:104C1000309729F4109255051092540502C0138262
:104C200012821093530500935205DF91CF911F918B
:104C30000F9108956F927F928F929F92AF92BF9241
:104C4000CF92DF92EF92FF920F931F93CF93DF9358
:104C5000EC01009781F4CB01DF91CF911F910F916F
:104C6000FF90EF90DF90CF90BF90AF909F908F908C
:104C70007F906F90B2CEFC01E60FF71F9C0122508F
:104C80003109E217F30708F4A8C0D9010D911C916E
:104C9000119706171707A8F00530110508F49BC0F7
:104CA000C80104978617970708F495C002501109A8
:104CB000061B170B019311936D937C93CF0122DF99
:104CC0008AC05B01A01AB10A4C01800E911EA0910E
:104CD0005405B091550540E050E0E12CF12C1097BF
:104CE00009F44AC0A815B905D1F56D907C901197CB
:104CF000630182E0C80ED11CCA14DB0480F1A30159
:104D00004A195B096A0182E0C80ED11C1296BC9058
:104D100012971396AC91B5E0CB16D10440F0B28255
:104D2000A38351834083D9016D937C930AC00E5FA6
:104D30001F4FC301800F911FF90191838083EB2DD9
:104D4000FA2FE114F10431F0D7011396FC93EE939E
:104D5000129741C0F0935505E09354053CC08D91E6
:104D60009C9111974817590708F4AC017D011296E0
:104D70000D90BC91A02DB3CF809152059091530519
:104D800088159905E1F446175707C8F48091140275
:104D900090911502009741F48DB79EB7409118028B
:104DA00050911902841B950BE817F907B0F4F093A2
:104DB0005305E0935205F901718360830CC0CB0168
:104DC0000CDE7C01009749F0A801BE0128D0CE017D
:104DD00099DEC70104C0CE0102C080E090E0DF91FF
:104DE000CF911F910F91FF90EF90DF90CF90BF90E8
:104DF000AF909F908F907F906F90089581E090E0AA
:104E0000F89416C0FB01DC0104C08D91019080195B
:104E100021F441505040C8F7881B990B0895FB01BD
:104E2000DC0102C001900D9241505040D8F7089526
:104E300016E0C3E1D6E000E005C0802FFE01C5DD2D
:104E40002196011DC431D10780E00807B1F7F8941D
:024E5000FFCF92
:104E52007107710771077107710771077107710790
:104E6200000080BF000056058000E803000000003B
:104E7200AD063D174606F30677065506690600009D
:104E82000000B30F840F920E650E890E750E660E2A
:104E920000000000600FA9125D1293111D0F721025
:104EA200CD10E10F3B0F480F000000007C0F0412F1
:104EB2000B13D211D40E2D1022115D11CC0E640FE2
:104EC2005050564D4450565F317C315F564D4450E0
:104ED200560D0A0053756365737366756C6C7920A1
:104EE200726F746174656421007970720900526F87
:104EF200746174696E67207573696E672067797271
:104F02006F636F7065005475726E696E67206C65B1
:104F12006674005475726E696E6720726967687490
:0E4F2200006E616E00696E66006F76660000BC
:020000023000CC
:10E000000D9489F10D94B2F10D94B2F10D94B2F129
:10E010000D94B2F10D94B2F10D94B2F10D94B2F1F0
:10E020000D94B2F10D94B2F10D94B2F10D94B2F1E0
:10E030000D94B2F10D94B2F10D94B2F10D94B2F1D0
:10E040000D94B2F10D94B2F10D94B2F10D94B2F1C0
:10E050000D94B2F10D94B2F10D94B2F10D94B2F1B0
:10E060000D94B2F10D94B2F10D94B2F10D94B2F1A0
:10E070000D94B2F10D94B2F10D94B2F10D94B2F190
:10E080000D94B2F10D94B2F10D94B2F10D94B2F180
:10E090000D94B2F10D94B2F10D94B2F10D94B2F170
:10E0A0000D94B2F10D94B2F10D94B2F10D94B2F160
:10E0B0000D94B2F10D94B2F10D94B2F10D94B2F150
:10E0C0000D94B2F10D94B2F10D94B2F10D94B2F140
:10E0D0000D94B2F10D94B2F10D94B2F10D94B2F130
:10E0E0000D94B2F141546D656761323536300041AF
:10E0F000726475696E6F206578706C6F72657220DE
:10E1000073746B3530305632206279204D4C530099
:10E11000426F6F746C6F616465723E004875683F52
:10E1200000436F6D70696C6564206F6E203D200048
:10E130004350552054797065202020203D20005FF9
:10E140005F4156525F415243485F5F3D2000415658
:10E1500052204C696243205665723D20004743437C
:10E160002056657273696F6E203D20004350552024
:10E1700049442020202020203D20004C6F7720663D
:10E18000757365202020203D20004869676820665F
:10E190007573652020203D200045787420667573D6
:10E1A00065202020203D20004C6F636B2066757336
:10E1B000652020203D20004D617220203720323024
:10E1C000313300312E362E3800342E332E350056A2
:10E1D00023202020414444522020206F7020636F70
:10E1E00064652020202020696E73747275637469E1
:10E1F0006F6E2061646472202020496E74657272B3
:10E20000757074006E6F20766563746F7200726A49
:10E210006D702020006A6D70200057686174207056
:10E220006F72743A00506F7274206E6F7420737541
:10E2300070706F72746564004D7573742062652030
:10E2400061206C6574746572002000577269747483
:10E25000696E672045450052656164696E672045B7
:10E26000450045452065727220636E743D00504F35
:10E27000525400303D5A65726F2061646472003FF1
:10E280003D43505520737461747300403D454550C3
:10E29000524F4D207465737400423D426C696E6B41
:10E2A000204C454400453D44756D70204545505215
:10E2B0004F4D00463D44756D7020464C415348001B
:10E2C000483D48656C70004C3D4C69737420492F83
:10E2D0004F20506F72747300513D51756974005234
:10E2E0003D44756D702052414D00563D73686F7707
:10E2F00020696E7465727275707420566563746FF0
:10E30000727300593D506F727420626C696E6B00BD
:10E310002A0011241FBECFEFD1E2DEBFCDBF01E046
:10E320000CBF12E0A0E0B2E0EEE1FDEF03E00BBFB6
:10E3300002C007900D92A030B107D9F712E0A0E01B
:10E34000B2E001C01D92AE30B107E1F70F9460F367
:10E350000D948DFE01E20EBF0FEF0DBF11241FBE05
:10E360000D9460F30D9400F020E030E040ED57E0B4
:10E3700005C0FA013197F1F72F5F3F4F2817390792
:10E38000C0F308959C01260F311DC901A0E0B0E043
:10E390002F5F3F4FABBFFC018791882361F08093D3
:10E3A000C6008091C00086FFFCCF8091C0008064D1
:10E3B0008093C000EACF08958DE08093C6008091DD
:10E3C000C00086FFFCCF8091C00080648093C000B5
:10E3D0008AE08093C6008091C00086FFFCCF8091C8
:10E3E000C00080648093C00008950F94C2F10F9420
:10E3F000DCF10895FC019081992359F09093C600B7
:10E400008091C00086FFFCCF8091C0008064809323
:10E41000C0003196992379F70895282F982F929567
:10E420009F70892F805D8A3308F0895F8093C600D2
:10E430008091C00086FFFCCF8091C00080648093F3
:10E44000C000822F8F70982F905D9A3308F0995FEB
:10E450009093C6008091C00086FFFCCF8091C000E1
:10E4600080648093C00008959C01FB01853691056E
:10E470001CF46330710594F0C90164E670E00F94F8
:10E480002EFE605D7F4F6093C6008091C00086FFC6
:10E49000FCCF8091C00080648093C0002B30310598
:10E4A00014F43297B4F0C90164E670E00F942EFEC4
:10E4B0006AE070E00F942EFE605D7F4F6093C600AF
:10E4C0008091C00086FFFCCF8091C0008064809363
:10E4D000C000C9016AE070E00F942EFEC0968093E0
:10E4E000C6008091C00086FFFCCF8091C000806490
:10E4F0008093C00008951F93182F8EE692EE60E07F
:10E500000F94C2F11093C6008091C00086FFFCCF2B
:10E510008091C00080648093C0000F94DCF11F9153
:10E5200008952F923F924F925F926F927F928F92B7
:10E530009F92AF92BF92CF92DF92EF92FF920F9392
:10E540001F93DF93CF93CDB7DEB762970FB6F894E2
:10E55000DEBF0FBECDBF382E622ECA01DB015C01CB
:10E560006D01772420E2222E2E010894411C511CBB
:10E570008BC081E0A81680E0B80681E0C80680E084
:10E58000D80628F0C601AA27BB270F940DF2BB2797
:10E59000AD2D9C2D8B2D0F940DF28A2D0F940DF225
:10E5A0002092C6008091C00086FFFCCF8091C00001
:10E5B00080648093C0009DE29093C6008091C0006B
:10E5C00086FFFCCF8091C00080648093C0002092C1
:10E5D000C6008091C00086FFFCCF8091C00080649F
:10E5E0008093C00019828601750188249924A1E0D6
:10E5F0003A1651F03A1620F0B2E03B1661F409C029
:10E600000BBFF701779007C0C7010F9477FE782EF4
:10E6100002C0F7017080872D0F940DF22092C60082
:10E620008091C00086FFFCCF8091C0008064809301
:10E63000C000872D8052F401EF70F0708F3520F408
:10E64000E40DF51D708204C0E40DF51D8EE280839B
:10E650000894E11CF11C011D111D0894811C911CE2
:10E6600090E18916910409F0C2CF80E190E0A0E02A
:10E67000B0E0A80EB91ECA1EDB1E198AC2010F9493
:10E68000FAF10F94DCF16A94662009F072CF629679
:10E690000FB6F894DEBF0FBECDBFCF91DF911F91B3
:10E6A0000F91FF90EF90DF90CF90BF90AF909F9031
:10E6B0008F907F906F905F904F903F902F90089534
:10E6C0002F923F924F925F926F927F928F929F9282
:10E6D000AF92BF92CF92DF92EF92FF920F931F9370
:10E6E000DF93CF93CDB7DEB7CD53D1400FB6F894BB
:10E6F000DEBF0FBECDBF01E20EBF0FEF0DBF94B75F
:10E70000F894A89514BE80916000886180936000A1
:10E7100010926000789493FF05C0E0910002F091A0
:10E7200001021995279A2F9A8091C00082608093E8
:10E73000C00080E18093C40088E18093C1000000A4
:10E74000EE24FF24870144E0A42EB12CCC24DD2448
:10E7500024C0C5010197F1F70894E11CF11C011DCB
:10E76000111D21E2E2162EE4F20620E0020720E06D
:10E77000120718F031E0C32ED12CC801B70127ECE5
:10E780003BE140E050E00F9441FE611571058105C9
:10E79000910519F485B1805885B98091C00087FD35
:10E7A00003C0C114D104A9F2A6014F5F5F4FC25E3E
:10E7B000DE4F59834883CE51D140C25EDE4F8881FF
:10E7C0009981CE51D140019711F00D9410FEC05D9A
:10E7D000DE4F19821882C053D14060E0C15DDE4F28
:10E7E0001882CF52D14088249924C35DDE4F19820C
:10E7F0001882CD52D140C05EDE4F188219821A8233
:10E800001B82C052D140CE5CDE4F188219821A8220
:10E810001B82C253D140EE24FF2487010BBFF701B6
:10E8200007911691C45CDE4F19830883CC53D14005
:10E830000D940BFEC25EDE4F28813981CE51D1404E
:10E840002130310509F52091C600C25EDE4F1982E4
:10E850001882CE51D14022C02F5F3F4F4F4F5F4FA4
:10E86000213082E138078AE7480780E0580780F0C6
:10E87000C45CDE4FE881F981CC53D140EF5FFF4F9C
:10E8800019F0EE27FF27099420E030E040E050E047
:10E890008091C00087FFE0CF2091C600C35DDE4FAE
:10E8A00048815981CD52D1404F5F5F4FC35DDE4FEC
:10E8B00059834883CD52D140213209F063C64A3092
:10E8C000510508F05FC60894811C911C53E0851621
:10E8D000910409F059C600E010E018C081E280936D
:10E8E000C6008091C00086FFFCCF8091C00080648C
:10E8F0008093C0002F5F3F4F2931310579F70F9486
:10E90000DCF10F5F1F4F0530110519F020E030E0FA
:10E91000E5CF10920A0210920B0210920C02109294
:10E920000D02109206021092070210920802109235
:10E930000902109202021092030210920402109235
:10E9400005028FEE90EE60E00F94F5F180E191EE1C
:10E9500060E00F94C2F18091C00087FFFCCF9091DE
:10E96000C600903608F09F759032B8F09093C600BC
:10E970008091C00086FFFCCF8091C00080648093AE
:10E98000C000A0E2A093C6008091C00086FFFCCF2B
:10E990008091C00080648093C000983409F4D7C18E
:10E9A0009934B8F4923409F459C1933458F490333B
:10E9B00019F1903308F4E3C59F33A1F1903409F0C5
:10E9C000DEC5BDC0953409F470C1963409F0D7C5D1
:10E9D00098C1923509F42BC2933538F49C3409F46C
:10E9E000F5C1913509F0CBC518C2963509F445C279
:10E9F000993509F0C4C567C483E792EE62E00F94CD
:10EA0000F5F110920602109207021092080210927D
:10EA1000090210920A0210920B0210920C0210923C
:10EA20000D0213C18FE792EE62E00F94F5F18FEEC5
:10EA300090EE60E00F94F5F181E291EE60E00F94CA
:10EA4000C2F187EB91EE60E00F94F5F180E391EE77
:10EA500060E00F94C2F184EE90EE60E00F94F5F167
:10EA60008FE391EE60E00F94C2F186E090E061E008
:10EA700070E00F9434F20F94DCF18DE591EE60E0DC
:10EA80000F94C2F189EC91EE60E00F94F5F18EE401
:10EA900091EE60E00F94C2F183EC91EE60E00F9490
:10EAA000F5F18CE691EE60E00F94C2F18EE10F94E7
:10EAB0000DF288E90F940DF281E00F940DF20F949E
:10EAC000DCF18BE791EE60E00F94C2F119E0E0E039
:10EAD000F0E010935700E4918E2F0F940DF20F94F5
:10EAE000DCF18AE891EE60E00F94C2F1E3E0F0E03F
:10EAF00010935700E4918E2F0F940DF20F94DCF1D8
:10EB000089E991EE60E00F94C2F1E2E0F0E0109349
:10EB10005700E4918E2F0F940DF20F94DCF188EAE8
:10EB200091EE60E00F94C2F1E1E0F0E01093570045
:10EB30001491812F0F940DF20F94DCF107CF8BE825
:10EB400092EE62E00F94F5F18BE492EE60E00F94A8
:10EB5000F5F10F94DCF100E010E019C0C8016F2D51
:10EB60000F947FFEFF2031F489E492EE60E00F9471
:10EB7000C2F10BC0F092C6008091C00086FFFCCFAE
:10EB80008091C00080648093C0000F5F1F4FC80158
:10EB900081519F41A0E0B0E0ABBFFC01F790BAE229
